{
  "_format": "hh-sol-artifact-1",
  "contractName": "CampaignFactory",
  "sourceName": "contracts/Campaign.sol",
  "abi": [
    {
      "anonymous": false,
      "inputs": [
        {
          "indexed": false,
          "internalType": "string",
          "name": "title",
          "type": "string"
        },
        {
          "indexed": false,
          "internalType": "uint256",
          "name": "requireAmount",
          "type": "uint256"
        },
        {
          "indexed": false,
          "internalType": "string",
          "name": "imgUrl",
          "type": "string"
        },
        {
          "indexed": false,
          "internalType": "string",
          "name": "story",
          "type": "string"
        },
        {
          "indexed": true,
          "internalType": "address",
          "name": "owner",
          "type": "address"
        },
        {
          "indexed": true,
          "internalType": "address",
          "name": "CampaignAddress",
          "type": "address"
        },
        {
          "indexed": true,
          "internalType": "uint256",
          "name": "timestamp",
          "type": "uint256"
        }
      ],
      "name": "Campaigncreated",
      "type": "event"
    },
    {
      "inputs": [
        {
          "internalType": "uint256",
          "name": "",
          "type": "uint256"
        }
      ],
      "name": "CampaignAddress",
      "outputs": [
        {
          "internalType": "address",
          "name": "",
          "type": "address"
        }
      ],
      "stateMutability": "view",
      "type": "function"
    },
    {
      "inputs": [
        {
          "internalType": "string",
          "name": "title",
          "type": "string"
        },
        {
          "internalType": "uint256",
          "name": "requireAmount",
          "type": "uint256"
        },
        {
          "internalType": "string",
          "name": "imgeUrl",
          "type": "string"
        },
        {
          "internalType": "string",
          "name": "story",
          "type": "string"
        }
      ],
      "name": "createCampaign",
      "outputs": [],
      "stateMutability": "nonpayable",
      "type": "function"
    }
  ],
  "bytecode": "0x6080604052348015600f57600080fd5b506113da8061001f6000396000f3fe608060405234801561001057600080fd5b50600436106100365760003560e01c806351b1f4631461003b57806355ac6c9514610057575b600080fd5b61005560048036038101906100509190610379565b610087565b005b610071600480360381019061006c9190610434565b61019d565b60405161007e91906104a2565b60405180910390f35b6000848484843360405161009a906101dc565b6100a895949392919061054b565b604051809103906000f0801580156100c4573d6000803e3d6000fd5b5090506000819080600181540180825580915050600190039060005260206000200160009091909190916101000a81548173ffffffffffffffffffffffffffffffffffffffff021916908373ffffffffffffffffffffffffffffffffffffffff160217905550428173ffffffffffffffffffffffffffffffffffffffff163373ffffffffffffffffffffffffffffffffffffffff167f19227cdaee79ebb4c199b04e3ee2094871fbd9f597c01fc952e43ab99d288b868888888860405161018e94939291906105b3565b60405180910390a45050505050565b600081815481106101ad57600080fd5b906000526020600020016000915054906101000a900473ffffffffffffffffffffffffffffffffffffffff1681565b610d978061060e83390190565b6000604051905090565b600080fd5b600080fd5b600080fd5b600080fd5b6000601f19601f8301169050919050565b7f4e487b7100000000000000000000000000000000000000000000000000000000600052604160045260246000fd5b61025082610207565b810181811067ffffffffffffffff8211171561026f5761026e610218565b5b80604052505050565b60006102826101e9565b905061028e8282610247565b919050565b600067ffffffffffffffff8211156102ae576102ad610218565b5b6102b782610207565b9050602081019050919050565b82818337600083830152505050565b60006102e66102e184610293565b610278565b90508281526020810184848401111561030257610301610202565b5b61030d8482856102c4565b509392505050565b600082601f83011261032a576103296101fd565b5b813561033a8482602086016102d3565b91505092915050565b6000819050919050565b61035681610343565b811461036157600080fd5b50565b6000813590506103738161034d565b92915050565b60008060008060808587031215610393576103926101f3565b5b600085013567ffffffffffffffff8111156103b1576103b06101f8565b5b6103bd87828801610315565b94505060206103ce87828801610364565b935050604085013567ffffffffffffffff8111156103ef576103ee6101f8565b5b6103fb87828801610315565b925050606085013567ffffffffffffffff81111561041c5761041b6101f8565b5b61042887828801610315565b91505092959194509250565b60006020828403121561044a576104496101f3565b5b600061045884828501610364565b91505092915050565b600073ffffffffffffffffffffffffffffffffffffffff82169050919050565b600061048c82610461565b9050919050565b61049c81610481565b82525050565b60006020820190506104b76000830184610493565b92915050565b600081519050919050565b600082825260208201905092915050565b60005b838110156104f75780820151818401526020810190506104dc565b60008484015250505050565b600061050e826104bd565b61051881856104c8565b93506105288185602086016104d9565b61053181610207565b840191505092915050565b61054581610343565b82525050565b600060a08201905081810360008301526105658188610503565b9050610574602083018761053c565b81810360408301526105868186610503565b9050818103606083015261059a8185610503565b90506105a96080830184610493565b9695505050505050565b600060808201905081810360008301526105cd8187610503565b90506105dc602083018661053c565b81810360408301526105ee8185610503565b905081810360608301526106028184610503565b90509594505050505056fe608060405234801561001057600080fd5b50604051610d97380380610d97833981810160405281019061003291906102bd565b846000908161004191906105a3565b5083600181905550826002908161005891906105a3565b50816003908161006891906105a3565b5080600560006101000a81548173ffffffffffffffffffffffffffffffffffffffff021916908373ffffffffffffffffffffffffffffffffffffffff1602179055505050505050610675565b6000604051905090565b600080fd5b600080fd5b600080fd5b600080fd5b6000601f19601f8301169050919050565b7f4e487b7100000000000000000000000000000000000000000000000000000000600052604160045260246000fd5b61011b826100d2565b810181811067ffffffffffffffff8211171561013a576101396100e3565b5b80604052505050565b600061014d6100b4565b90506101598282610112565b919050565b600067ffffffffffffffff821115610179576101786100e3565b5b610182826100d2565b9050602081019050919050565b60005b838110156101ad578082015181840152602081019050610192565b60008484015250505050565b60006101cc6101c78461015e565b610143565b9050828152602081018484840111156101e8576101e76100cd565b5b6101f384828561018f565b509392505050565b600082601f8301126102105761020f6100c8565b5b81516102208482602086016101b9565b91505092915050565b6000819050919050565b61023c81610229565b811461024757600080fd5b50565b60008151905061025981610233565b92915050565b600073ffffffffffffffffffffffffffffffffffffffff82169050919050565b600061028a8261025f565b9050919050565b61029a8161027f565b81146102a557600080fd5b50565b6000815190506102b781610291565b92915050565b600080600080600060a086880312156102d9576102d86100be565b5b600086015167ffffffffffffffff8111156102f7576102f66100c3565b5b610303888289016101fb565b95505060206103148882890161024a565b945050604086015167ffffffffffffffff811115610335576103346100c3565b5b610341888289016101fb565b935050606086015167ffffffffffffffff811115610362576103616100c3565b5b61036e888289016101fb565b925050608061037f888289016102a8565b9150509295509295909350565b600081519050919050565b7f4e487b7100000000000000000000000000000000000000000000000000000000600052602260045260246000fd5b600060028204905060018216806103de57607f821691505b6020821081036103f1576103f0610397565b5b50919050565b60008190508160005260206000209050919050565b60006020601f8301049050919050565b600082821b905092915050565b6000600883026104597fffffffffffffffffffffffffffffffffffffffffffffffffffffffffffffffff8261041c565b610463868361041c565b95508019841693508086168417925050509392505050565b6000819050919050565b60006104a061049b61049684610229565b61047b565b610229565b9050919050565b6000819050919050565b6104ba83610485565b6104ce6104c6826104a7565b848454610429565b825550505050565b600090565b6104e36104d6565b6104ee8184846104b1565b505050565b5b81811015610512576105076000826104db565b6001810190506104f4565b5050565b601f82111561055757610528816103f7565b6105318461040c565b81016020851015610540578190505b61055461054c8561040c565b8301826104f3565b50505b505050565b600082821c905092915050565b600061057a6000198460080261055c565b1980831691505092915050565b60006105938383610569565b9150826002028217905092915050565b6105ac8261038c565b67ffffffffffffffff8111156105c5576105c46100e3565b5b6105cf82546103c6565b6105da828285610516565b600060209050601f83116001811461060d57600084156105fb578287015190505b6106058582610587565b86555061066d565b601f19841661061b866103f7565b60005b828110156106435784890151825560018201915060208501945060208101905061061e565b86831015610660578489015161065c601f891682610569565b8355505b6001600288020188555050505b505050505050565b610713806106846000396000f3fe6080604052600436106100705760003560e01c80638da5cb5b1161004e5780638da5cb5b146100f6578063ad0b94a614610121578063b3f4d5e41461014c578063e96c034a1461017757610070565b806309883bd51461007557806346c922d1146100a05780634a79d50c146100cb575b600080fd5b34801561008157600080fd5b5061008a610181565b6040516100979190610485565b60405180910390f35b3480156100ac57600080fd5b506100b5610187565b6040516100c29190610530565b60405180910390f35b3480156100d757600080fd5b506100e0610215565b6040516100ed9190610530565b60405180910390f35b34801561010257600080fd5b5061010b6102a3565b6040516101189190610593565b60405180910390f35b34801561012d57600080fd5b506101366102c9565b6040516101439190610530565b60405180910390f35b34801561015857600080fd5b50610161610357565b60405161016e9190610485565b60405180910390f35b61017f61035d565b005b60045481565b60038054610194906105dd565b80601f01602080910402602001604051908101604052809291908181526020018280546101c0906105dd565b801561020d5780601f106101e25761010080835404028352916020019161020d565b820191906000526020600020905b8154815290600101906020018083116101f057829003601f168201915b505050505081565b60008054610222906105dd565b80601f016020809104026020016040519081016040528092919081815260200182805461024e906105dd565b801561029b5780601f106102705761010080835404028352916020019161029b565b820191906000526020600020905b81548152906001019060200180831161027e57829003601f168201915b505050505081565b600560009054906101000a900473ffffffffffffffffffffffffffffffffffffffff1681565b600280546102d6906105dd565b80601f0160208091040260200160405190810160405280929190818152602001828054610302906105dd565b801561034f5780601f106103245761010080835404028352916020019161034f565b820191906000526020600020905b81548152906001019060200180831161033257829003601f168201915b505050505081565b60015481565b600454600154116103a3576040517f08c379a000000000000000000000000000000000000000000000000000000000815260040161039a9061065a565b60405180910390fd5b600560009054906101000a900473ffffffffffffffffffffffffffffffffffffffff1673ffffffffffffffffffffffffffffffffffffffff166108fc349081150290604051600060405180830381858888f1935050505015801561040b573d6000803e3d6000fd5b50346004600082825461041e91906106a9565b9250508190555042343373ffffffffffffffffffffffffffffffffffffffff167f6cce7885e1b68b17a1b3b7df42ed338ccde256d576ebbfd0dd7dfbed0edcb2db60405160405180910390a4565b6000819050919050565b61047f8161046c565b82525050565b600060208201905061049a6000830184610476565b92915050565b600081519050919050565b600082825260208201905092915050565b60005b838110156104da5780820151818401526020810190506104bf565b60008484015250505050565b6000601f19601f8301169050919050565b6000610502826104a0565b61050c81856104ab565b935061051c8185602086016104bc565b610525816104e6565b840191505092915050565b6000602082019050818103600083015261054a81846104f7565b905092915050565b600073ffffffffffffffffffffffffffffffffffffffff82169050919050565b600061057d82610552565b9050919050565b61058d81610572565b82525050565b60006020820190506105a86000830184610584565b92915050565b7f4e487b7100000000000000000000000000000000000000000000000000000000600052602260045260246000fd5b600060028204905060018216806105f557607f821691505b602082108103610608576106076105ae565b5b50919050565b7f72656365697665416d6f756e74206861732066756c6c2066696c6c6564000000600082015250565b6000610644601d836104ab565b915061064f8261060e565b602082019050919050565b6000602082019050818103600083015261067381610637565b9050919050565b7f4e487b7100000000000000000000000000000000000000000000000000000000600052601160045260246000fd5b60006106b48261046c565b91506106bf8361046c565b92508282019050808211156106d7576106d661067a565b5b9291505056fea264697066735822122063dd4b01aab676ad86041c5b8ab92a69ffc8b793404a4d37905262249b78987264736f6c634300081c0033a2646970667358221220eb05d4987293e0b7d52be3e6c8749c6cf7e03b7d24a22e26b99873f7927bd18d64736f6c634300081c0033",
  "linkReferences": {},
  "deployedLinkReferences": {}
}